:100000000C942E000C944B000C944B000C944B0061
:100010000C944B000C944B000C944B000C94B506C4
:100020000C944B000C944B000C944B000C944B0024
:100030000C944B000C944B000C944B000C944B0014
:100040000C944B000C944B000C944B000C944B0004
:100050000C944B000C944B000C944B0011241FBECD
:10006000CFEFD0E1DEBFCDBF11E0A0E0B1E0E8E628
:10007000F8E102C005900D92A837B107D9F721E049
:10008000A8E7B1E001C01D92AD38B207E1F70E94C8
:10009000F7080C94320C0C9400001F931FE7282FD4
:1000A0002103C001112464E670E00E94B609072E06
:1000B000000C880B990B0E947A0A20E030E040E0A7
:1000C0005FE30E94060B0E94420A161B612F81E02B
:1000D0001F910C940D076FE780E00E940D0780E0F0
:1000E0000E944D0061E080E00E94BA0484E091E04B
:1000F0000E94AC0582E008950F931F93CF93DF9386
:100100008C01EB010E94BF0BBE01601B710B6F5F86
:100110007F4F0E94A209800F911FDF91CF911F9105
:100120000F9108950F931F93CF93DF9396E4899FC8
:10013000800111240115110599F0D0E0C0E06DE6B1
:1001400080E00E940D0787EE0E944D008FE99FE03E
:100150000197F1F700C0000021960C171D0779F7F1
:100160006FE780E00E940D0780E0DF91CF911F9143
:100170000F910C944D00CF93DF93C82FD62F6FE7CC
:1001800080E00E940D0780E00E944D0060E085E065
:100190000E94BA048D2F90E00E94D10560E080E0BB
:1001A0000E94BA048C2F90E00E94D10561E080E0AB
:1001B0000E94BA0488E091E00E94AC05D83700F5AF
:1001C00062E780E00E940D0784E10E944D0080E01C
:1001D0000E947302C82F81E00E947302883780F367
:1001E000C83780F46DE880E00E940D078EEE0E9413
:1001F0004D0080E00E947302C82F81E00E947302CC
:10020000C83780F36FE780E00E940D0780E00E940E
:100210004D0061E080E00E94BA048DE091E0DF9142
:10022000CF910C94AC05CF93DF93C82FD62F6FE7F7
:1002300080E00E940D0780E00E944D00C93728F53C
:10024000D93790F0C83781F069EC80E00E940D0743
:100250008BEF0E944D0080E00E947302C82F81E066
:100260000E947302C83780F36FE780E00E940D0799
:1002700080E00E944D0061E080E00E94BA048DE0C1
:1002800091E0DF91CF910C94AC050E944F0661E0A4
:1002900080E00E94BA0488E091E00E94AC05D83763
:1002A00018F76CE780E00E940D0784E60E944D007D
:1002B00080E00E94730281E00E947302883788F315
:1002C000D3CFCF93DF9380E00E947302C82F81E0E9
:1002D0000E947302D82F61E980E00E940D0789E136
:1002E0000E944D00C83758F00CC080E00E94730295
:1002F000C82F81E00E947302D82FC83710F4D83776
:10030000A0F36D2F8C2FDF91CF910C9413018823D4
:1003100031F0813009F00895862F0C944D00062E9F
:10032000000C770B880B990B0E947A0A2FE832ECAD
:1003300045E95FE30E94060B20E030E04EEF52E417
:100340000E94060B20E030E048EC52E40E94D00905
:1003500020E030E040E05FE30E94060B0E94420A8A
:10036000615880E00C940D07DF92EF92FF920F939B
:100370001F93CF93DF93C82F90E080E00E94780A0C
:100380002DEC3CEC4CE751E40E94060B0E94490A1C
:100390007B019AE0D92E06EFC11103C086EFD82E5B
:1003A0000AE0D0E0C0E0E114F10461F42EC0893726
:1003B000F8F482E00E947302863580F52196EC16EF
:1003C000FD0619F1602F80E00E9487018D2D0E94AB
:1003D0004D008FE99FE00197F1F700C0000080E039
:1003E0000E947302182F81E00E9473021937F8F2FD
:1003F000682F812F0E94130181E0DF91CF911F911F
:100400000F91FF90EF90DF90089580E0DF91CF9102
:100410001F910F91FF90EF90DF900895DF91CF91A2
:100420001F910F91FF90EF90DF900C946B00EF9273
:10043000FF920F931F93CF93DF9393E2699F700115
:10044000112417EE811101C019E1D0E0C0E0E114E0
:10045000F10461F42DC08937F8F482E00E94730240
:10046000863570F52196EC16FD0611F1612F80E0BE
:100470000E948701812F0E944D008FE99FE0019724
:10048000F1F700C0000080E00E947302082F81E0B5
:100490000E9473020937F8F2682F802F0E9413011F
:1004A00081E0DF91CF911F910F91FF90EF90089520
:1004B00080E0DF91CF911F910F91FF90EF90089511
:1004C000DF91CF911F910F91FF90EF900C946B00F3
:1004D000EAE7F0E0808187688083ECE7F0E08081E4
:1004E00080668083089590917C00987F90937C0033
:1004F00090917C00892B80937C0080917A008064AD
:1005000080937A0080917A0086FDFCCF80917900FB
:1005100008958DB18F7C8DB985E08A95F1F7000043
:100520006D9A759885E08A95F1F700006C9A749839
:1005300085E08A95F1F7000008956C9885E08A952A
:10054000F1F700006D9885E08A95F1F700000895B5
:100550006D9885E08A95F1F7000065990DC06C985B
:1005600085E08A95F1F700006C9A749885E08A9589
:10057000F1F70000659BF3CF6C9808956C9885E0C7
:100580008A95F1F700006C9A749885E08A95F1F7E6
:10059000000008951F93CF93DF93C82FD62F142FF9
:1005A0000E94A8020E94890287E013C06D9895E01E
:1005B0009A95F1F700006C9895E09A95F1F7000094
:1005C0006C9A749895E09A95F1F70000CC0F8150E1
:1005D00029F0C6FDEBCF6D9A7598E9CF6D9A7598A5
:1005E00085E08A95F1F700006C9895E09A95F1F70F
:1005F00000006C9A749885E08A95F1F700006D9878
:1006000095E09A95F1F700006C9865994BC085E0EC
:100610008A95F1F700006C9A749895E09A95F1F735
:10062000000088E014C06D9A759895E09A95F1F7EE
:1006300000006C9895E09A95F1F700006C9A749818
:1006400095E09A95F1F70000DD0F815021F0D7FF7A
:10065000EACF6D98EACF6D9885E08A95F1F70000B2
:100660006C9865991AC095E09A95F1F700006C9A1C
:10067000749885E08A95F1F70000112351F06C9889
:1006800095E09A95F1F700006D9885E08A95F1F76D
:100690000000DF91CF911F91089589E691E00E94BB
:1006A000AC05FFCF8DE591E00E94AC05FFCFFC01CA
:1006B0006623D1F14FEF460F50E04F5F5F4F480F79
:1006C000591F908128E016C06D9A759885E08A952B
:1006D000F1F700006C9885E08A95F1F700006C9ABC
:1006E000749885E08A95F1F700009081990F9083C6
:1006F000215021F097FFE8CF6D98E8CF31966D98A3
:1007000085E08A95F1F700006C98659918C085E03E
:100710008A95F1F700006C9A749885E08A95F1F754
:1007200000004E175F0769F66C9885E08A95F1F72F
:1007300000006D9885E08A95F1F70000089586E63F
:1007400091E00E94AC05FFCF0F931F93CF93DF93EF
:10075000082FEB01142F0E94890287E013C06D98C7
:1007600095E09A95F1F700006C9895E09A95F1F76D
:1007700000006C9A749895E09A95F1F70000000FCC
:10078000815029F006FDEBCF6D9A7598E9CF6D98F1
:1007900085E08A95F1F700006C9895E09A95F1F75D
:1007A00000006C9A749885E08A95F1F700006D98C6
:1007B00095E09A95F1F700006C9865995AC085E02C
:1007C0008A95F1F700006C9A749895E09A95F1F784
:1007D00000006D9885E08A95F1F700001123B1F1D2
:1007E0002FEF210F30E02F5F3F4F2C0F3D1F98E080
:1007F0008881880F88836C9885E08A95F1F70000DE
:10080000659B03C088818160888385E08A95F1F7C4
:1008100000006C9A749885E08A95F1F70000915079
:1008200039F76D9A759895E09A95F1F700006C98F4
:1008300085E08A95F1F700006C9A749895E09A9596
:10084000F1F7000021962C173D0789F685E08A957F
:10085000F1F700006C9895E09A95F1F700006D981B
:1008600085E08A95F1F70000DF91CF911F910F91FC
:1008700008958EE691E00E94AC05FFCFCF93DF9301
:100880001F92CDB7DEB7498340E00E94CA0261E003
:10089000CE0101960E9457030F90DF91CF910895EA
:1008A0001F93CF93DF931F92CDB7DEB7182F41E090
:1008B0000E94CA0241E0BE016F5F7F4F812F0E94FC
:1008C000A40389810F90DF91CF911F91089561E07A
:1008D0008CE10C94500463E08CE10C94500465E0CE
:1008E0008CE10C9450048AE08A95F1F700C0449A98
:1008F0008AE08A95F1F700C044988AE08A95F1F77A
:1009000000C00895F89482B98AE08A95F1F700C092
:10091000449A8AE08A95F1F700C044988AE08A9563
:10092000F1F700C0789408958F98F89482B98AE01E
:100930008A95F1F700C0449A8AE08A95F1F700C0E1
:1009400044988AE08A95F1F700C0789408958F9AC8
:10095000F89482B98AE08A95F1F700C0449A8AE057
:100960008A95F1F700C044988AE08A95F1F700C0B3
:1009700078940895803110F4623008F008956E5F25
:100980006295660F660F607C860F8F98F89482B927
:100990008AE08A95F1F700C0449A8AE08A95F1F7D7
:1009A00000C044988AE08A95F1F700C0789485ECFD
:1009B0008A95F1F7000008953C9A879A8FEF81B9E4
:1009C0008FE19EE40197F1F700C000008F98F89442
:1009D00088E382B99AE09A95F1F700C0449AEAE078
:1009E000EA95F1F700C04498FAE0FA95F1F700C0F3
:1009F0007894EFE7F2E03197F1F700C000008F98AC
:100A0000F89482B9FAE0FA95F1F700C0449A9AE0B6
:100A10009A95F1F700C04498EAE0EA95F1F700C032
:100A20007894EFE7F2E03197F1F700C000008F987B
:100A3000F89482B9FAE0FA95F1F700C0449A9AE086
:100A40009A95F1F700C04498EAE0EA95F1F700C002
:100A50007894EFE7F2E03197F1F700C000008F984B
:100A6000F89498E092B9FAE0FA95F1F700C0449A48
:100A70009AE09A95F1F700C04498EAE0EA95F1F718
:100A800000C07894EFE7F2E03197F1F700C0000082
:100A90008F98F89491E092B9FAE0FA95F1F700C0D6
:100AA000449A9AE09A95F1F700C04498EAE0EA95F2
:100AB000F1F700C07894EFE7FEE33197F1F700C05B
:100AC00000008F98F89496E092B9FAE0FA95F1F761
:100AD00000C0449A9AE09A95F1F700C04498EAE081
:100AE000EA95F1F700C07894EFE7F2E03197F1F77B
:100AF00000C000008F98F89482B9FAE0FA95F1F7F7
:100B000000C0449A8AE08A95F1F700C044989AE0C0
:100B10009A95F1F700C07894EFE8F1E03197F1F79A
:100B200000C000008F98F8948CE082B9FAE0FA9542
:100B3000F1F700C0449A8AE08A95F1F700C0449822
:100B40009AE09A95F1F700C07894EFE8F1E03197D8
:100B5000F1F700C000000895DC019C91992301F198
:100B600020E08F9AF89492B98AE08A95F1F700C054
:100B7000449A9AE09A95F1F700C044988AE08A95E1
:100B8000F1F700C078948FE792E00197F1F700C089
:100B900000002F5FFD01E20FF11D90819111E1CF67
:100BA00008951F93CF93DF939C01892B09F45AC0BA
:100BB00045E011E0EFE0F7E2CAE0D0E0C901BF0193
:100BC0006F5F7F4F0E94A209662349F1E217F30786
:100BD00070F5605D8F9AF89462B9BAE0BA95F1F752
:100BE00000C0449A2AE02A95F1F700C04498AAE090
:100BF000AA95F1F700C07894AFE7B2E01197F1F74A
:100C000000C0000010E09C01CF01BE010E94B609A7
:100C1000FB01415099F6DF91CF911F910895E217A2
:100C2000F30718F41111EFCFD4CF1111EDCF605DA0
:100C30008F9AF89462B9BAE0BA95F1F700C0449A75
:100C40008AE08A95F1F700C044989AE09A95F1F706
:100C500000C07894AFE7B2E01197F1F700C0000050
:100C600010E0D2CF8F9AF89480E382B92AE02A95D7
:100C7000F1F700C0449A8AE08A95F1F700C04498E1
:100C80009AE09A95F1F700C07894AFE7B2E0119737
:100C9000F1F700C00000DF91CF911F9108958F9868
:100CA000F89481E082B98AE08A95F1F700C0449A0D
:100CB0009AE09A95F1F700C044988AE08A95F1F796
:100CC00000C078948FE79EE30197F1F700C0000021
:100CD00008955D9A5C980895382F262F4FEF64038E
:100CE000C001112464E670E00E94B609311107C00A
:100CF0006093B300121664F45C9A5D98089567BD22
:100D000012161CF45E9A5F9808955F9A5E98089593
:100D10000C946906CF93DF93C3EBD0E018820E9456
:100D2000690617BC5F9A5E9884B1806984B98AB1FC
:100D3000806F8AB9E0EBF0E08081886680838081F3
:100D40008260808384B5886684BD84B5826084BDFA
:100D50008AE087BD8883DF91CF9108955C9A5D9882
:100D60002C9A5F9A5E982F9A08951F920F920FB651
:100D70000F9211242F933F934F935F938F939F93E1
:100D8000EF93FF9340917801542F5695852F90E073
:100D900021E030E001C0220F5A95EAF740FD27C05C
:100DA0004091880050918900880F991FFC01EF57EE
:100DB000FE4F80819181840F951F909389008093CD
:100DC000880088B1282B28B9809178018F5F8770BF
:100DD00080937801FF91EF919F918F915F914F9157
:100DE0003F912F910F900FBE0F901F90189540913B
:100DF000880050918900880F991FFC01E758FE4F29
:100E000080819181840F951F909389008093880041
:100E100088B12095282328B9D7CF90E02AE0629F97
:100E2000B00111246C53764F880F991FFC01EF57C6
:100E3000FE4F7183608387589E4F24ED30E3261B5D
:100E4000370BFC01318320830895A1E8B1E024EC45
:100E500039E011963C932E93E9E7F1E080E197E2C7
:100E60009183808313963C932E931297938382836E
:100E700015963C932E9314979583848317963C93F1
:100E80002E9316979783868387B18F6087B9E1E8A1
:100E9000F0E01082808182608083EFE6F0E0808164
:100EA00082608083789408958CB18095881F88270C
:100EB000881F0895282F30E08E3010F080E00895CC
:100EC000F901EB59F84F0C94CA09820782078D0784
:100ED0008D0798079D079D079F079F079F07AA07F4
:100EE000730773077E0783B190E02950310902C070
:100EF000959587952A95E2F78170089583B1869537
:100F0000817008952CB130E0A90102C05595479534
:100F10008A95E2F7CA018170089582B390E02F5F4D
:100F20003F4F02C0959587952A95E2F78170089505
:100F30008CB186FB882780F9089523B1E4CF86B170
:100F400090E02250310902C0959587952A95E2F7E5
:100F50008170089583B181700895282F30E08E301C
:100F6000B0F4F901EA54F84F0C94CA09D707D7072F
:100F7000E307E307F10703080308F507F507F5079B
:100F80000F08C807C807C407611165C021980895F4
:100F90002950310981E090E001C0880F2A95EAF7D5
:100FA00094B1662309F43FC0892B84B9089521E0E8
:100FB00030E001C0220F8A95EAF78DB16623C9F1AE
:100FC000282B2DB908952F5F3F4F81E090E001C09D
:100FD000880F2A95EAF793B3662379F1892B83BBAF
:100FE0000895662391F16E9A08952250310981E0A7
:100FF00090E001C0880F2A95EAF797B1662309F1BE
:10100000892B87B9089521E030E001C0220F8A952D
:10101000EAF784B16623D9F0282B24B90895662312
:1010200031F0209A08958095892384B908952098F5
:101030000895209528232DB908958095892383BB91
:1010400008958095892387B908956E98089520950D
:10105000282324B90895219A0895282F30E08E304E
:10106000B0F4F901EA5CF74F0C94CA095708570825
:101070006308630871088308830875087508750894
:101080008F08480848084408611165C029980895E8
:101090002950310981E090E001C0880F2A95EAF7D4
:1010A00095B1662309F43FC0892B85B9089521E0E5
:1010B00030E001C0220F8A95EAF78EB16623C9F1AC
:1010C000282B2EB908952F5F3F4F81E090E001C09B
:1010D000880F2A95EAF794B3662379F1892B84BBAC
:1010E0000895662391F1769A08952250310981E09E
:1010F00090E001C0880F2A95EAF798B1662309F1BC
:10110000892B88B9089521E030E001C0220F8A952B
:10111000EAF785B16623D9F0282B25B9089566230F
:1011200031F0289A08958095892385B908952898E3
:101130000895209528232EB908958095892384BB8E
:1011400008958095892388B9089576980895209503
:10115000282325B90895299A0895811104C0613082
:1011600031F0A0980895613021F0A1980895A09AD7
:101170000895A19A0895882311F0A19A0895A09A3C
:101180000895882311F0A1980895A0980895529A7F
:1011900083B3836083BB779A0E9468020E94DC0459
:1011A0000E9425070E948A0641E06AE28CE10E94C3
:1011B0003E042FEF81EE94E0215080409040E1F713
:1011C00000C000000C94A802FC010FB6F8946091D6
:1011D000890170918A0180918B0190918C010FBEE1
:1011E000309721F0608371838283938308950E94F6
:1011F000C70890E080E00E94E408CB010E94C40B85
:101200000E944F066FE780E00E940D0780E00E9479
:101210004D0060E080E00E94BA0484E191E00E9409
:10122000AC050E9454078823E1F3C5EBD0E005E14B
:1012300010E00E944F0660E080E00E94BA048AE15C
:1012400091E00E94AC0568E671E080E00E94B40184
:101250008130E9F1823079F10E944F0660E080E050
:101260000E94BA0481E291E00E94AC050E94BF0B8B
:101270006C010E94BF0B7C010E94BF0B282FC6018E
:10128000BE010E94A209BC01822F81700E94B4019C
:101290008130E9F0823079F0C701B8010E94A209DB
:1012A000BC016D5E7F4F80E00E941702813079F0B3
:1012B000823009F0BECF0E944F0660E080E00E94BD
:1012C000BA0484E391E00E94AC050E9461010E948F
:1012D0004F0660E080E00E94BA0489E391E00E943A
:1012E000AC058AE00E9492006AE570E080E00E940E
:1012F000B4010E944F0660E080E00E94BA0481E4DD
:1013000091E00E94AC0564EB70E080E00E94B401C3
:101310008150823028F06AE570E081E00E94B401DB
:101320000E944F0660E080E00E94BA048BE491E0E6
:101330000E94AC0567E280E00E941702813009F04C
:10134000B7CFC5CFAA1BBB1B51E107C0AA1FBB1F4C
:10135000A617B70710F0A61BB70B881F991F5A9541
:10136000A9F780959095BC01CD01089597FB072EB4
:1013700016F4009407D077FD09D00E94A20907FC5B
:1013800005D03EF4909581959F4F08957095619595
:101390007F4F0895EE0FFF1F0590F491E02D099403
:1013A0000E94E4090C94CC0A0E94C50A58F00E94DD
:1013B000BE0A40F029F45F3F29F00C94B50A5111A0
:1013C0000C94000B0C94BB0A0E94DD0A68F399236D
:1013D000B1F3552391F3951B550BBB27AA27621731
:1013E0007307840738F09F5F5F4F220F331F441F3E
:1013F000AA1FA9F335D00E2E3AF0E0E832D0915072
:101400005040E695001CCAF72BD0FE2F29D0660F5E
:10141000771F881FBB1F261737074807AB07B0E8A1
:1014200009F0BB0B802DBF01FF2793585F4F3AF0A7
:101430009E3F510578F00C94B50A0C94000B5F3F69
:10144000E4F3983ED4F3869577956795B795F7952D
:101450009F5FC9F7880F911D9695879597F9089515
:10146000E1E0660F771F881FBB1F621773078407B1
:10147000BA0720F0621B730B840BBA0BEE1F88F7C0
:10148000E09508950E94490A6894B1110C94000BEC
:1014900008950E94E50A88F09F5798F0B92F992780
:1014A000B751B0F0E1F0660F771F881F991F1AF04F
:1014B000BA95C9F714C0B13091F00E94FF0AB1E0AB
:1014C00008950C94FF0A672F782F8827B85F39F0AA
:1014D000B93FCCF3869577956795B395D9F73EF4E8
:1014E00090958095709561957F4F8F4F9F4F089590
:1014F000E89409C097FB3EF49095809570956195AE
:101500007F4F8F4F9F4F9923A9F0F92F96E9BB2763
:101510009395F695879577956795B795F111F8CFDF
:10152000FAF4BB0F11F460FF1BC06F5F7F4F8F4F4A
:101530009F4F16C0882311F096E911C0772321F040
:101540009EE8872F762F05C0662371F096E8862FD8
:1015500070E060E02AF09A95660F771F881FDAF72F
:10156000880F9695879597F9089597F99F6780E872
:1015700070E060E008959FEF80EC089500240A94E5
:101580001616170618060906089500240A9412165E
:101590001306140605060895092E0394000C11F491
:1015A000882352F0BB0F40F4BF2B11F460FF04C03E
:1015B0006F5F7F4F8F4F9F4F089557FD9058440F97
:1015C000551F59F05F3F71F04795880F97FB991FA2
:1015D00061F09F3F79F0879508951216130614065F
:1015E000551FF2CF4695F1DF08C0161617061806EC
:1015F000991FF1CF86957105610508940895E894C7
:10160000BB2766277727CB0197F908950E94190B0E
:101610000C94CC0A0E94BE0A38F00E94C50A20F041
:10162000952311F00C94B50A0C94BB0A11240C9468
:10163000000B0E94DD0A70F3959FC1F3950F50E0F7
:10164000551F629FF001729FBB27F00DB11D639F74
:10165000AA27F00DB11DAA1F649F6627B00DA11D1A
:10166000661F829F2227B00DA11D621F739FB00DC0
:10167000A11D621F839FA00D611D221F749F332730
:10168000A00D611D231F849F600D211D822F762FC9
:101690006A2F11249F5750409AF0F1F088234AF0A6
:1016A000EE0FFF1FBB1F661F771F881F9150504012
:1016B000A9F79E3F510580F00C94B50A0C94000BDD
:1016C0005F3FE4F3983ED4F3869577956795B79599
:1016D000F795E7959F5FC1F7FE2B880F911D9695B3
:1016E000879597F908958F929F92AF92BF92CF926C
:1016F000DF92EF92FF92CF93DF93EC0168817981C3
:101700008A819B81611571058105910521F464E24F
:1017100079ED8BE597E02DE133EF41E050E00E9459
:10172000CF0B49015A019B01AC01A7EAB1E40E9429
:10173000EE0B6B017C01ACEEB4EFA50194010E94AD
:10174000FC0BDC01CB018C0D9D1DAE1DBF1DB7FF39
:1017500003C00197A109B04888839983AA83BB83FA
:101760009F77DF91CF91FF90EF90DF90CF90BF9068
:10177000AF909F908F9008950E94730B089580E022
:1017800091E00E94730B0895B0E0A0E08093000107
:1017900090930101A0930201B09303010895052ED7
:1017A00097FB1EF400940E94E60B57FD07D00E94A1
:1017B000010C07FC03D04EF40C94E60B50954095B9
:1017C000309521953F4F4F4F5F4F089590958095ED
:1017D000709561957F4F8F4F9F4F08950E94230C06
:1017E000A59F900DB49F900DA49F800D911D112475
:1017F0000895B7FF0C94EE0B0E94EE0B821B930B27
:101800000895A1E21A2EAA1BBB1BFD010DC0AA1F41
:10181000BB1FEE1FFF1FA217B307E407F50720F059
:10182000A21BB30BE40BF50B661F771F881F991FD4
:101830001A9469F760957095809590959B01AC011D
:10184000BD01CF010895A29FB001B39FC001A39F26
:10185000700D811D1124911DB29F700D811D1124E9
:08186000911D0895F894FFCFDB
:101868000100000043616E004564676500537175AF
:1018780061726500524541445900534541524348FD
:10188800004D4F56455F524F544154455F52414EAB
:10189800444F4D005055534800524554524143540B
:1018A8000048414C465F5343414E005245545552FF
:1018B8004E5F544F5F56414E544147450061646442
:1018C800724E41434B0077725F4E41434B00726545
:0818D80061644E41434B000026
:00000001FF
